{
  "contractName": "Election",
  "abi": [
    {
      "inputs": [],
      "stateMutability": "nonpayable",
      "type": "constructor"
    },
    {
      "inputs": [
        {
          "internalType": "string",
          "name": "",
          "type": "string"
        }
      ],
      "name": "candidates",
      "outputs": [
        {
          "internalType": "string",
          "name": "name",
          "type": "string"
        },
        {
          "internalType": "string",
          "name": "info",
          "type": "string"
        },
        {
          "internalType": "bool",
          "name": "exists",
          "type": "bool"
        }
      ],
      "stateMutability": "view",
      "type": "function",
      "constant": true
    },
    {
      "inputs": [
        {
          "internalType": "string",
          "name": "",
          "type": "string"
        }
      ],
      "name": "voterIds",
      "outputs": [
        {
          "internalType": "bool",
          "name": "",
          "type": "bool"
        }
      ],
      "stateMutability": "view",
      "type": "function",
      "constant": true
    },
    {
      "inputs": [
        {
          "internalType": "address",
          "name": "_address",
          "type": "address"
        }
      ],
      "name": "addAdmin",
      "outputs": [],
      "stateMutability": "nonpayable",
      "type": "function"
    },
    {
      "inputs": [
        {
          "internalType": "string",
          "name": "_candidateName",
          "type": "string"
        },
        {
          "internalType": "string",
          "name": "_info",
          "type": "string"
        }
      ],
      "name": "addCandidate",
      "outputs": [],
      "stateMutability": "nonpayable",
      "type": "function"
    },
    {
      "inputs": [],
      "name": "getCandidates",
      "outputs": [
        {
          "internalType": "string[]",
          "name": "",
          "type": "string[]"
        }
      ],
      "stateMutability": "view",
      "type": "function",
      "constant": true
    },
    {
      "inputs": [
        {
          "internalType": "string",
          "name": "_name",
          "type": "string"
        },
        {
          "internalType": "string",
          "name": "_description",
          "type": "string"
        }
      ],
      "name": "setElectionDetails",
      "outputs": [],
      "stateMutability": "nonpayable",
      "type": "function"
    },
    {
      "inputs": [],
      "name": "getElectionName",
      "outputs": [
        {
          "internalType": "string",
          "name": "",
          "type": "string"
        }
      ],
      "stateMutability": "view",
      "type": "function",
      "constant": true
    },
    {
      "inputs": [],
      "name": "getElectionDescription",
      "outputs": [
        {
          "internalType": "string",
          "name": "",
          "type": "string"
        }
      ],
      "stateMutability": "view",
      "type": "function",
      "constant": true
    },
    {
      "inputs": [],
      "name": "getTotalCandidates",
      "outputs": [
        {
          "internalType": "uint256",
          "name": "",
          "type": "uint256"
        }
      ],
      "stateMutability": "view",
      "type": "function",
      "constant": true
    },
    {
      "inputs": [
        {
          "internalType": "string",
          "name": "_voterId",
          "type": "string"
        },
        {
          "internalType": "string",
          "name": "_voterName",
          "type": "string"
        },
        {
          "internalType": "string",
          "name": "_candidateName",
          "type": "string"
        }
      ],
      "name": "vote",
      "outputs": [],
      "stateMutability": "nonpayable",
      "type": "function"
    },
    {
      "inputs": [],
      "name": "getVoters",
      "outputs": [
        {
          "internalType": "string[]",
          "name": "",
          "type": "string[]"
        }
      ],
      "stateMutability": "view",
      "type": "function",
      "constant": true
    },
    {
      "inputs": [],
      "name": "getVotes",
      "outputs": [
        {
          "components": [
            {
              "internalType": "address",
              "name": "voterAddress",
              "type": "address"
            },
            {
              "internalType": "string",
              "name": "voterId",
              "type": "string"
            },
            {
              "internalType": "string",
              "name": "voterName",
              "type": "string"
            },
            {
              "internalType": "string",
              "name": "candidate",
              "type": "string"
            }
          ],
          "internalType": "struct Election.Vote[]",
          "name": "",
          "type": "tuple[]"
        }
      ],
      "stateMutability": "view",
      "type": "function",
      "constant": true
    },
    {
      "inputs": [],
      "name": "getTotalVoter",
      "outputs": [
        {
          "internalType": "uint256",
          "name": "",
          "type": "uint256"
        }
      ],
      "stateMutability": "view",
      "type": "function",
      "constant": true
    },
    {
      "inputs": [],
      "name": "endElection",
      "outputs": [],
      "stateMutability": "nonpayable",
      "type": "function"
    },
    {
      "inputs": [],
      "name": "resetElection",
      "outputs": [],
      "stateMutability": "nonpayable",
      "type": "function"
    },
    {
      "inputs": [],
      "name": "getStatus",
      "outputs": [
        {
          "internalType": "string",
          "name": "",
          "type": "string"
        }
      ],
      "stateMutability": "view",
      "type": "function",
      "constant": true
    }
  ],
  "bytecode": "0x608060405234801561001057600080fd5b5060016000803373ffffffffffffffffffffffffffffffffffffffff1673ffffffffffffffffffffffffffffffffffffffff16815260200190815260200160002060006101000a81548160ff0219169083151502179055506000600360006101000a81548160ff0219169083151502179055506000600360016101000a81548160ff021916908315150217905550612184806100ad6000396000f3fe608060405234801561001057600080fd5b50600436106101005760003560e01c80637048027511610097578063af8c50b611610066578063af8c50b614610263578063c5539cc214610281578063cdd72253146102b3578063e8f30523146102d157610100565b806370480275146101df57806395f59fe1146101fb57806397929c63146102175780639ebed03f1461023357610100565b806326541b56116100d357806326541b561461017d57806330e7a79c146101995780634e69d560146101b757806359f78468146101d557610100565b806306a49fce146101055780630b93400e146101235780630dc96015146101415780630deb56ab1461015f575b600080fd5b61010d6102db565b60405161011a9190611833565b60405180910390f35b61012b6103b4565b604051610138919061186e565b60405180910390f35b6101496103c1565b60405161015691906119fd565b60405180910390f35b6101676106be565b604051610174919061186e565b60405180910390f35b61019760048036038101906101929190611b68565b6106cb565b005b6101a161083c565b6040516101ae9190611c2a565b60405180910390f35b6101bf6108ce565b6040516101cc9190611c2a565b60405180910390f35b6101dd6109fc565b005b6101f960048036038101906101f49190611c78565b610b05565b005b61021560048036038101906102109190611ca5565b610bf1565b005b610231600480360381019061022c9190611b68565b610e8a565b005b61024d60048036038101906102489190611d4c565b610f84565b60405161025a9190611db0565b60405180910390f35b61026b610fba565b6040516102789190611c2a565b60405180910390f35b61029b60048036038101906102969190611d4c565b61104c565b6040516102aa93929190611dcb565b60405180910390f35b6102bb6111a9565b6040516102c89190611833565b60405180910390f35b6102d9611282565b005b60606005805480602002602001604051908101604052809291908181526020016000905b828210156103ab57838290600052602060002001805461031e90611e3f565b80601f016020809104026020016040519081016040528092919081815260200182805461034a90611e3f565b80156103975780601f1061036c57610100808354040283529160200191610397565b820191906000526020600020905b81548152906001019060200180831161037a57829003601f168201915b5050505050815260200190600101906102ff565b50505050905090565b6000600880549050905090565b6060600115156000803373ffffffffffffffffffffffffffffffffffffffff1673ffffffffffffffffffffffffffffffffffffffff16815260200190815260200160002060009054906101000a900460ff16151514610455576040517f08c379a000000000000000000000000000000000000000000000000000000000815260040161044c90611ebd565b60405180910390fd5b6006805480602002602001604051908101604052809291908181526020016000905b828210156106b557838290600052602060002090600402016040518060800160405290816000820160009054906101000a900473ffffffffffffffffffffffffffffffffffffffff1673ffffffffffffffffffffffffffffffffffffffff1673ffffffffffffffffffffffffffffffffffffffff16815260200160018201805461050090611e3f565b80601f016020809104026020016040519081016040528092919081815260200182805461052c90611e3f565b80156105795780601f1061054e57610100808354040283529160200191610579565b820191906000526020600020905b81548152906001019060200180831161055c57829003601f168201915b5050505050815260200160028201805461059290611e3f565b80601f01602080910402602001604051908101604052809291908181526020018280546105be90611e3f565b801561060b5780601f106105e05761010080835404028352916020019161060b565b820191906000526020600020905b8154815290600101906020018083116105ee57829003601f168201915b5050505050815260200160038201805461062490611e3f565b80601f016020809104026020016040519081016040528092919081815260200182805461065090611e3f565b801561069d5780601f106106725761010080835404028352916020019161069d565b820191906000526020600020905b81548152906001019060200180831161068057829003601f168201915b50505050508152505081526020019060010190610477565b50505050905090565b6000600580549050905090565b600115156000803373ffffffffffffffffffffffffffffffffffffffff1673ffffffffffffffffffffffffffffffffffffffff16815260200190815260200160002060009054906101000a900460ff1615151461075d576040517f08c379a000000000000000000000000000000000000000000000000000000000815260040161075490611ebd565b60405180910390fd5b60006040518060600160405280848152602001838152602001600115158152509050806004846040516107909190611f19565b908152602001604051809103902060008201518160000190805190602001906107ba92919061151e565b5060208201518160010190805190602001906107d792919061151e565b5060408201518160020160006101000a81548160ff02191690831515021790555090505060058390806001815401808255809150506001900390600052602060002001600090919091909150908051906020019061083692919061151e565b50505050565b60606001805461084b90611e3f565b80601f016020809104026020016040519081016040528092919081815260200182805461087790611e3f565b80156108c45780601f10610899576101008083540402835291602001916108c4565b820191906000526020600020905b8154815290600101906020018083116108a757829003601f168201915b5050505050905090565b606060011515600360009054906101000a900460ff161515148015610906575060011515600360019054906101000a900460ff161515145b15610948576040518060400160405280600881526020017f66696e697368656400000000000000000000000000000000000000000000000081525090506109f9565b60011515600360009054906101000a900460ff16151514801561097e575060001515600360019054906101000a900460ff161515145b156109c0576040518060400160405280600781526020017f72756e6e696e670000000000000000000000000000000000000000000000000081525090506109f9565b6040518060400160405280600b81526020017f6e6f742d7374617274656400000000000000000000000000000000000000000081525090505b90565b600115156000803373ffffffffffffffffffffffffffffffffffffffff1673ffffffffffffffffffffffffffffffffffffffff16815260200190815260200160002060009054906101000a900460ff16151514610a8e576040517f08c379a0000000000000000000000000000000000000000000000000000000008152600401610a8590611ebd565b60405180910390fd5b60011515600360009054906101000a900460ff161515148015610ac4575060001515600360019054906101000a900460ff161515145b610acd57600080fd5b6001600360006101000a81548160ff0219169083151502179055506001600360016101000a81548160ff021916908315150217905550565b600115156000803373ffffffffffffffffffffffffffffffffffffffff1673ffffffffffffffffffffffffffffffffffffffff16815260200190815260200160002060009054906101000a900460ff16151514610b97576040517f08c379a0000000000000000000000000000000000000000000000000000000008152600401610b8e90611ebd565b60405180910390fd5b60016000808373ffffffffffffffffffffffffffffffffffffffff1673ffffffffffffffffffffffffffffffffffffffff16815260200190815260200160002060006101000a81548160ff02191690831515021790555050565b60011515600360009054906101000a900460ff161515148015610c27575060001515600360019054906101000a900460ff161515145b610c3057600080fd5b600481604051610c409190611f19565b908152602001604051809103902060020160009054906101000a900460ff16610c9e576040517f08c379a0000000000000000000000000000000000000000000000000000000008152600401610c9590611f7c565b60405180910390fd5b600783604051610cae9190611f19565b908152602001604051809103902060009054906101000a900460ff1615610d0a576040517f08c379a0000000000000000000000000000000000000000000000000000000008152600401610d0190611fe8565b60405180910390fd5b600060405180608001604052803373ffffffffffffffffffffffffffffffffffffffff168152602001858152602001848152602001838152509050600681908060018154018082558091505060019003906000526020600020906004020160009091909190915060008201518160000160006101000a81548173ffffffffffffffffffffffffffffffffffffffff021916908373ffffffffffffffffffffffffffffffffffffffff1602179055506020820151816001019080519060200190610dd492919061151e565b506040820151816002019080519060200190610df192919061151e565b506060820151816003019080519060200190610e0e92919061151e565b5050506001600785604051610e239190611f19565b908152602001604051809103902060006101000a81548160ff021916908315150217905550600884908060018154018082558091505060019003906000526020600020016000909190919091509080519060200190610e8392919061151e565b5050505050565b600115156000803373ffffffffffffffffffffffffffffffffffffffff1673ffffffffffffffffffffffffffffffffffffffff16815260200190815260200160002060009054906101000a900460ff16151514610f1c576040517f08c379a0000000000000000000000000000000000000000000000000000000008152600401610f1390611ebd565b60405180910390fd5b8160019080519060200190610f3292919061151e565b508060029080519060200190610f4992919061151e565b506001600360006101000a81548160ff0219169083151502179055506000600360016101000a81548160ff0219169083151502179055505050565b6007818051602081018201805184825260208301602085012081835280955050505050506000915054906101000a900460ff1681565b606060028054610fc990611e3f565b80601f0160208091040260200160405190810160405280929190818152602001828054610ff590611e3f565b80156110425780601f1061101757610100808354040283529160200191611042565b820191906000526020600020905b81548152906001019060200180831161102557829003601f168201915b5050505050905090565b60048180516020810182018051848252602083016020850120818352809550505050505060009150905080600001805461108590611e3f565b80601f01602080910402602001604051908101604052809291908181526020018280546110b190611e3f565b80156110fe5780601f106110d3576101008083540402835291602001916110fe565b820191906000526020600020905b8154815290600101906020018083116110e157829003601f168201915b50505050509080600101805461111390611e3f565b80601f016020809104026020016040519081016040528092919081815260200182805461113f90611e3f565b801561118c5780601f106111615761010080835404028352916020019161118c565b820191906000526020600020905b81548152906001019060200180831161116f57829003601f168201915b5050505050908060020160009054906101000a900460ff16905083565b60606008805480602002602001604051908101604052809291908181526020016000905b828210156112795783829060005260206000200180546111ec90611e3f565b80601f016020809104026020016040519081016040528092919081815260200182805461121890611e3f565b80156112655780601f1061123a57610100808354040283529160200191611265565b820191906000526020600020905b81548152906001019060200180831161124857829003601f168201915b5050505050815260200190600101906111cd565b50505050905090565b600115156000803373ffffffffffffffffffffffffffffffffffffffff1673ffffffffffffffffffffffffffffffffffffffff16815260200190815260200160002060009054906101000a900460ff16151514611314576040517f08c379a000000000000000000000000000000000000000000000000000000000815260040161130b90611ebd565b60405180910390fd5b60011515600360009054906101000a900460ff16151514801561134a575060011515600360019054906101000a900460ff161515145b61135357600080fd5b60005b6005805490508163ffffffff1610156113f457600460058263ffffffff168154811061138557611384612008565b5b9060005260206000200160405161139c91906120cb565b9081526020016040518091039020600080820160006113bb91906115a4565b6001820160006113cb91906115a4565b6002820160006101000a81549060ff0219169055505080806113ec90612121565b915050611356565b5060005b6008805490508163ffffffff16101561146f57600760088263ffffffff168154811061142757611426612008565b5b9060005260206000200160405161143e91906120cb565b908152602001604051809103902060006101000a81549060ff0219169055808061146790612121565b9150506113f8565b50604051806020016040528060008152506001908051906020019061149592919061151e565b5060405180602001604052806000815250600290805190602001906114bb92919061151e565b50600660006114ca91906115e4565b600560006114d89190611608565b600860006114e69190611608565b6000600360006101000a81548160ff0219169083151502179055506000600360016101000a81548160ff021916908315150217905550565b82805461152a90611e3f565b90600052602060002090601f01602090048101928261154c5760008555611593565b82601f1061156557805160ff1916838001178555611593565b82800160010185558215611593579182015b82811115611592578251825591602001919060010190611577565b5b5090506115a09190611629565b5090565b5080546115b090611e3f565b6000825580601f106115c257506115e1565b601f0160209004906000526020600020908101906115e09190611629565b5b50565b50805460008255600402906000526020600020908101906116059190611646565b50565b508054600082559060005260206000209081019061162691906116b4565b50565b5b8082111561164257600081600090555060010161162a565b5090565b5b808211156116b057600080820160006101000a81549073ffffffffffffffffffffffffffffffffffffffff021916905560018201600061168791906115a4565b60028201600061169791906115a4565b6003820160006116a791906115a4565b50600401611647565b5090565b5b808211156116d457600081816116cb91906115a4565b506001016116b5565b5090565b600081519050919050565b600082825260208201905092915050565b6000819050602082019050919050565b600081519050919050565b600082825260208201905092915050565b60005b8381101561173e578082015181840152602081019050611723565b8381111561174d576000848401525b50505050565b6000601f19601f8301169050919050565b600061176f82611704565b611779818561170f565b9350611789818560208601611720565b61179281611753565b840191505092915050565b60006117a98383611764565b905092915050565b6000602082019050919050565b60006117c9826116d8565b6117d381856116e3565b9350836020820285016117e5856116f4565b8060005b858110156118215784840389528151611802858261179d565b945061180d836117b1565b925060208a019950506001810190506117e9565b50829750879550505050505092915050565b6000602082019050818103600083015261184d81846117be565b905092915050565b6000819050919050565b61186881611855565b82525050565b6000602082019050611883600083018461185f565b92915050565b600081519050919050565b600082825260208201905092915050565b6000819050602082019050919050565b600073ffffffffffffffffffffffffffffffffffffffff82169050919050565b60006118e0826118b5565b9050919050565b6118f0816118d5565b82525050565b600060808301600083015161190e60008601826118e7565b50602083015184820360208601526119268282611764565b915050604083015184820360408601526119408282611764565b9150506060830151848203606086015261195a8282611764565b9150508091505092915050565b600061197383836118f6565b905092915050565b6000602082019050919050565b600061199382611889565b61199d8185611894565b9350836020820285016119af856118a5565b8060005b858110156119eb57848403895281516119cc8582611967565b94506119d78361197b565b925060208a019950506001810190506119b3565b50829750879550505050505092915050565b60006020820190508181036000830152611a178184611988565b905092915050565b6000604051905090565b600080fd5b600080fd5b600080fd5b600080fd5b7f4e487b7100000000000000000000000000000000000000000000000000000000600052604160045260246000fd5b611a7582611753565b810181811067ffffffffffffffff82111715611a9457611a93611a3d565b5b80604052505050565b6000611aa7611a1f565b9050611ab38282611a6c565b919050565b600067ffffffffffffffff821115611ad357611ad2611a3d565b5b611adc82611753565b9050602081019050919050565b82818337600083830152505050565b6000611b0b611b0684611ab8565b611a9d565b905082815260208101848484011115611b2757611b26611a38565b5b611b32848285611ae9565b509392505050565b600082601f830112611b4f57611b4e611a33565b5b8135611b5f848260208601611af8565b91505092915050565b60008060408385031215611b7f57611b7e611a29565b5b600083013567ffffffffffffffff811115611b9d57611b9c611a2e565b5b611ba985828601611b3a565b925050602083013567ffffffffffffffff811115611bca57611bc9611a2e565b5b611bd685828601611b3a565b9150509250929050565b600082825260208201905092915050565b6000611bfc82611704565b611c068185611be0565b9350611c16818560208601611720565b611c1f81611753565b840191505092915050565b60006020820190508181036000830152611c448184611bf1565b905092915050565b611c55816118d5565b8114611c6057600080fd5b50565b600081359050611c7281611c4c565b92915050565b600060208284031215611c8e57611c8d611a29565b5b6000611c9c84828501611c63565b91505092915050565b600080600060608486031215611cbe57611cbd611a29565b5b600084013567ffffffffffffffff811115611cdc57611cdb611a2e565b5b611ce886828701611b3a565b935050602084013567ffffffffffffffff811115611d0957611d08611a2e565b5b611d1586828701611b3a565b925050604084013567ffffffffffffffff811115611d3657611d35611a2e565b5b611d4286828701611b3a565b9150509250925092565b600060208284031215611d6257611d61611a29565b5b600082013567ffffffffffffffff811115611d8057611d7f611a2e565b5b611d8c84828501611b3a565b91505092915050565b60008115159050919050565b611daa81611d95565b82525050565b6000602082019050611dc56000830184611da1565b92915050565b60006060820190508181036000830152611de58186611bf1565b90508181036020830152611df98185611bf1565b9050611e086040830184611da1565b949350505050565b7f4e487b7100000000000000000000000000000000000000000000000000000000600052602260045260246000fd5b60006002820490506001821680611e5757607f821691505b60208210811415611e6b57611e6a611e10565b5b50919050565b7f4f6e6c792041646d696e00000000000000000000000000000000000000000000600082015250565b6000611ea7600a83611be0565b9150611eb282611e71565b602082019050919050565b60006020820190508181036000830152611ed681611e9a565b9050919050565b600081905092915050565b6000611ef382611704565b611efd8185611edd565b9350611f0d818560208601611720565b80840191505092915050565b6000611f258284611ee8565b915081905092915050565b7f4e6f20737563682063616e646964617465000000000000000000000000000000600082015250565b6000611f66601183611be0565b9150611f7182611f30565b602082019050919050565b60006020820190508181036000830152611f9581611f59565b9050919050565b7f416c726561647920566f74656400000000000000000000000000000000000000600082015250565b6000611fd2600d83611be0565b9150611fdd82611f9c565b602082019050919050565b6000602082019050818103600083015261200181611fc5565b9050919050565b7f4e487b7100000000000000000000000000000000000000000000000000000000600052603260045260246000fd5b60008190508160005260206000209050919050565b6000815461205981611e3f565b6120638186611edd565b9450600182166000811461207e576001811461208f576120c2565b60ff198316865281860193506120c2565b61209885612037565b60005b838110156120ba5781548189015260018201915060208101905061209b565b838801955050505b50505092915050565b60006120d7828461204c565b915081905092915050565b7f4e487b7100000000000000000000000000000000000000000000000000000000600052601160045260246000fd5b600063ffffffff82169050919050565b600061212c82612111565b915063ffffffff821415612143576121426120e2565b5b60018201905091905056fea2646970667358221220f1aa874d9f19e97aa7633707fb607749ca94260adb0563a67399fcb198ccc31864736f6c634300080b0033",
  "immutableReferences": {},
  "source": "//SPDX-License-Identifier: UNLICENSED\npragma solidity >=0.4.22 <0.9.0;\n\ncontract Election {\n    mapping(address => bool) admins;\n    string name; // name of the election. example: for president\n    string description; // description of the election\n    bool started;\n    bool ended;\n\n    constructor() {\n        admins[msg.sender] = true;\n        started = false;\n        ended = false;\n    }\n\n    modifier onlyAdmin() {\n        require(admins[msg.sender] == true, \"Only Admin\");\n        _;\n    }\n\n    function addAdmin(address _address) public onlyAdmin {\n        admins[_address] = true;\n    }\n\n    /*****************************CANDIDATES SECTION*****************************/\n\n    struct Candidate {\n        string name;\n        string info;\n        bool exists;\n    }\n    mapping(string => Candidate) public candidates;\n    string[] candidateNames;\n\n    function addCandidate(string memory _candidateName, string memory _info)\n        public\n        onlyAdmin\n    {\n        Candidate memory newCandidate = Candidate({\n            name: _candidateName,\n            info: _info,\n            exists: true\n        });\n\n        candidates[_candidateName] = newCandidate;\n        candidateNames.push(_candidateName);\n    }\n\n    function getCandidates() public view returns (string[] memory) {\n        return candidateNames;\n    }\n\n    /*****************************CANDIDATES SECTION*****************************/\n\n    /*****************************ELECTION SECTION*****************************/\n\n    function setElectionDetails(string memory _name, string memory _description)\n        public\n        onlyAdmin\n    {\n        name = _name;\n        description = _description;\n        started = true;\n        ended = false;\n    }\n\n    function getElectionName() public view returns (string memory) {\n        return name;\n    }\n\n    function getElectionDescription() public view returns (string memory) {\n        return description;\n    }\n\n    function getTotalCandidates() public view returns (uint256) {\n        return candidateNames.length;\n    }\n\n    /*****************************ELECTION SECTION*****************************/\n\n    /*****************************VOTER SECTION*****************************/\n\n    struct Vote {\n        address voterAddress;\n        string voterId;\n        string voterName;\n        string candidate;\n    }\n    Vote[] votes;\n    mapping(string => bool) public voterIds;\n    string[] votersArray;\n\n    function vote(\n        string memory _voterId,\n        string memory _voterName,\n        string memory _candidateName\n    ) public {\n        require(started == true && ended == false);\n        require(candidates[_candidateName].exists, \"No such candidate\");\n        require(!voterIds[_voterId], \"Already Voted\");\n\n        Vote memory newVote = Vote({\n            voterAddress: msg.sender,\n            voterId: _voterId,\n            voterName: _voterName,\n            candidate: _candidateName\n        });\n\n        votes.push(newVote);\n        voterIds[_voterId] = true;\n        votersArray.push(_voterId);\n    }\n\n    function getVoters() public view returns (string[] memory) {\n        return votersArray;\n    }\n\n    /*****************************VOTER SECTION*****************************/\n\n    function getVotes() public view onlyAdmin returns (Vote[] memory) {\n        return votes;\n    }\n\n    function getTotalVoter() public view returns (uint256) {\n        return votersArray.length;\n    }\n\n    function endElection() public onlyAdmin {\n        require(started == true && ended == false);\n\n        started = true;\n        ended = true;\n    }\n\n    function resetElection() public onlyAdmin {\n        require(started == true && ended == true);\n\n        for (uint32 i = 0; i < candidateNames.length; i++) {\n            delete candidates[candidateNames[i]];\n        }\n\n        for (uint32 i = 0; i < votersArray.length; i++) {\n            delete voterIds[votersArray[i]];\n        }\n\n        name = \"\";\n        description = \"\";\n\n        delete votes;\n        delete candidateNames;\n        delete votersArray;\n\n        started = false;\n        ended = false;\n    }\n\n    function getStatus() public view returns (string memory) {\n        if (started == true && ended == true) {\n            return \"finished\";\n        }\n\n        if (started == true && ended == false) {\n            return \"running\";\n        }\n\n        return \"not-started\";\n    }\n}\n",
  "sourcePath": "/home/deathbot30/Projects/bbvs/backend/contracts/Election.sol",
  "compiler": {
    "name": "solc",
    "version": "0.8.11+commit.d7f03943.Emscripten.clang"
  },
  "schemaVersion": "3.4.5",
  "updatedAt": "2022-02-22T03:20:54.133Z",
  "networkType": "ethereum",
  "devdoc": {
    "kind": "dev",
    "methods": {},
    "version": 1
  },
  "userdoc": {
    "kind": "user",
    "methods": {},
    "version": 1
  }
}