{
  "contractName": "Election",
  "abi": [
    {
      "inputs": [],
      "stateMutability": "nonpayable",
      "type": "constructor"
    },
    {
      "inputs": [
        {
          "internalType": "string",
          "name": "",
          "type": "string"
        }
      ],
      "name": "candidates",
      "outputs": [
        {
          "internalType": "string",
          "name": "name",
          "type": "string"
        },
        {
          "internalType": "string",
          "name": "info",
          "type": "string"
        },
        {
          "internalType": "bool",
          "name": "exists",
          "type": "bool"
        }
      ],
      "stateMutability": "view",
      "type": "function",
      "constant": true
    },
    {
      "inputs": [
        {
          "internalType": "uint256",
          "name": "",
          "type": "uint256"
        }
      ],
      "name": "voterIds",
      "outputs": [
        {
          "internalType": "bool",
          "name": "",
          "type": "bool"
        }
      ],
      "stateMutability": "view",
      "type": "function",
      "constant": true
    },
    {
      "inputs": [
        {
          "internalType": "address",
          "name": "_address",
          "type": "address"
        }
      ],
      "name": "addAdmin",
      "outputs": [],
      "stateMutability": "nonpayable",
      "type": "function"
    },
    {
      "inputs": [
        {
          "internalType": "string",
          "name": "_candidateName",
          "type": "string"
        },
        {
          "internalType": "string",
          "name": "_info",
          "type": "string"
        }
      ],
      "name": "addCandidate",
      "outputs": [],
      "stateMutability": "nonpayable",
      "type": "function"
    },
    {
      "inputs": [],
      "name": "getCandidates",
      "outputs": [
        {
          "internalType": "string[]",
          "name": "",
          "type": "string[]"
        }
      ],
      "stateMutability": "view",
      "type": "function",
      "constant": true
    },
    {
      "inputs": [
        {
          "internalType": "string",
          "name": "_name",
          "type": "string"
        },
        {
          "internalType": "string",
          "name": "_description",
          "type": "string"
        }
      ],
      "name": "setElectionDetails",
      "outputs": [],
      "stateMutability": "nonpayable",
      "type": "function"
    },
    {
      "inputs": [],
      "name": "getElectionName",
      "outputs": [
        {
          "internalType": "string",
          "name": "",
          "type": "string"
        }
      ],
      "stateMutability": "view",
      "type": "function",
      "constant": true
    },
    {
      "inputs": [],
      "name": "getElectionDescription",
      "outputs": [
        {
          "internalType": "string",
          "name": "",
          "type": "string"
        }
      ],
      "stateMutability": "view",
      "type": "function",
      "constant": true
    },
    {
      "inputs": [],
      "name": "getTotalCandidates",
      "outputs": [
        {
          "internalType": "uint256",
          "name": "",
          "type": "uint256"
        }
      ],
      "stateMutability": "view",
      "type": "function",
      "constant": true
    },
    {
      "inputs": [
        {
          "internalType": "uint256",
          "name": "_voterId",
          "type": "uint256"
        },
        {
          "internalType": "string",
          "name": "_voterName",
          "type": "string"
        },
        {
          "internalType": "string",
          "name": "_candidateName",
          "type": "string"
        }
      ],
      "name": "vote",
      "outputs": [],
      "stateMutability": "nonpayable",
      "type": "function"
    },
    {
      "inputs": [],
      "name": "getVotes",
      "outputs": [
        {
          "components": [
            {
              "internalType": "address",
              "name": "voterAddress",
              "type": "address"
            },
            {
              "internalType": "uint256",
              "name": "voterId",
              "type": "uint256"
            },
            {
              "internalType": "string",
              "name": "voterName",
              "type": "string"
            },
            {
              "internalType": "string",
              "name": "candidate",
              "type": "string"
            }
          ],
          "internalType": "struct Election.Vote[]",
          "name": "",
          "type": "tuple[]"
        }
      ],
      "stateMutability": "view",
      "type": "function",
      "constant": true
    },
    {
      "inputs": [],
      "name": "getTotalVoter",
      "outputs": [
        {
          "internalType": "uint256",
          "name": "",
          "type": "uint256"
        }
      ],
      "stateMutability": "view",
      "type": "function",
      "constant": true
    },
    {
      "inputs": [],
      "name": "endElection",
      "outputs": [],
      "stateMutability": "nonpayable",
      "type": "function"
    },
    {
      "inputs": [],
      "name": "isElectionRunning",
      "outputs": [
        {
          "internalType": "bool",
          "name": "",
          "type": "bool"
        }
      ],
      "stateMutability": "view",
      "type": "function",
      "constant": true
    }
  ],
  "bytecode": "0x608060405234801561001057600080fd5b5060016000803373ffffffffffffffffffffffffffffffffffffffff1673ffffffffffffffffffffffffffffffffffffffff16815260200190815260200160002060006101000a81548160ff0219169083151502179055506000600360006101000a81548160ff02191690831515021790555061190b806100926000396000f3fe608060405234801561001057600080fd5b50600436106100ea5760003560e01c8063704802751161008c578063af8c50b611610066578063af8c50b614610213578063b108475914610231578063c5539cc21461024d578063e80d44dd1461027f576100ea565b806370480275146101ab578063812bb1c3146101c757806397929c63146101f7576100ea565b80630deb56ab116100c85780630deb56ab1461014957806326541b561461016757806330e7a79c1461018357806359f78468146101a1576100ea565b806306a49fce146100ef5780630b93400e1461010d5780630dc960151461012b575b600080fd5b6100f761029d565b60405161010491906110bb565b60405180910390f35b610115610376565b60405161012291906110f6565b60405180910390f35b610133610383565b604051610140919061128d565b60405180910390f35b6101516105f8565b60405161015e91906110f6565b60405180910390f35b610181600480360381019061017c91906113f8565b610605565b005b61018b610776565b60405161019891906114ba565b60405180910390f35b6101a9610808565b005b6101c560048036038101906101c09190611508565b6108b7565b005b6101e160048036038101906101dc9190611561565b6109a3565b6040516101ee91906115a9565b60405180910390f35b610211600480360381019061020c91906113f8565b6109c3565b005b61021b610aa2565b60405161022891906114ba565b60405180910390f35b61024b600480360381019061024691906115c4565b610b34565b005b6102676004803603810190610262919061164f565b610d49565b60405161027693929190611698565b60405180910390f35b610287610ea6565b60405161029491906115a9565b60405180910390f35b60606005805480602002602001604051908101604052809291908181526020016000905b8282101561036d5783829060005260206000200180546102e09061170c565b80601f016020809104026020016040519081016040528092919081815260200182805461030c9061170c565b80156103595780601f1061032e57610100808354040283529160200191610359565b820191906000526020600020905b81548152906001019060200180831161033c57829003601f168201915b5050505050815260200190600101906102c1565b50505050905090565b6000600680549050905090565b6060600115156000803373ffffffffffffffffffffffffffffffffffffffff1673ffffffffffffffffffffffffffffffffffffffff16815260200190815260200160002060009054906101000a900460ff16151514610417576040517f08c379a000000000000000000000000000000000000000000000000000000000815260040161040e9061178a565b60405180910390fd5b6006805480602002602001604051908101604052809291908181526020016000905b828210156105ef57838290600052602060002090600402016040518060800160405290816000820160009054906101000a900473ffffffffffffffffffffffffffffffffffffffff1673ffffffffffffffffffffffffffffffffffffffff1673ffffffffffffffffffffffffffffffffffffffff168152602001600182015481526020016002820180546104cc9061170c565b80601f01602080910402602001604051908101604052809291908181526020018280546104f89061170c565b80156105455780601f1061051a57610100808354040283529160200191610545565b820191906000526020600020905b81548152906001019060200180831161052857829003601f168201915b5050505050815260200160038201805461055e9061170c565b80601f016020809104026020016040519081016040528092919081815260200182805461058a9061170c565b80156105d75780601f106105ac576101008083540402835291602001916105d7565b820191906000526020600020905b8154815290600101906020018083116105ba57829003601f168201915b50505050508152505081526020019060010190610439565b50505050905090565b6000600580549050905090565b600115156000803373ffffffffffffffffffffffffffffffffffffffff1673ffffffffffffffffffffffffffffffffffffffff16815260200190815260200160002060009054906101000a900460ff16151514610697576040517f08c379a000000000000000000000000000000000000000000000000000000000815260040161068e9061178a565b60405180910390fd5b60006040518060600160405280848152602001838152602001600115158152509050806004846040516106ca91906117e6565b908152602001604051809103902060008201518160000190805190602001906106f4929190610ebd565b506020820151816001019080519060200190610711929190610ebd565b5060408201518160020160006101000a81548160ff021916908315150217905550905050600583908060018154018082558091505060019003906000526020600020016000909190919091509080519060200190610770929190610ebd565b50505050565b6060600180546107859061170c565b80601f01602080910402602001604051908101604052809291908181526020018280546107b19061170c565b80156107fe5780601f106107d3576101008083540402835291602001916107fe565b820191906000526020600020905b8154815290600101906020018083116107e157829003601f168201915b5050505050905090565b600115156000803373ffffffffffffffffffffffffffffffffffffffff1673ffffffffffffffffffffffffffffffffffffffff16815260200190815260200160002060009054906101000a900460ff1615151461089a576040517f08c379a00000000000000000000000000000000000000000000000000000000081526004016108919061178a565b60405180910390fd5b6000600360006101000a81548160ff021916908315150217905550565b600115156000803373ffffffffffffffffffffffffffffffffffffffff1673ffffffffffffffffffffffffffffffffffffffff16815260200190815260200160002060009054906101000a900460ff16151514610949576040517f08c379a00000000000000000000000000000000000000000000000000000000081526004016109409061178a565b60405180910390fd5b60016000808373ffffffffffffffffffffffffffffffffffffffff1673ffffffffffffffffffffffffffffffffffffffff16815260200190815260200160002060006101000a81548160ff02191690831515021790555050565b60076020528060005260406000206000915054906101000a900460ff1681565b600115156000803373ffffffffffffffffffffffffffffffffffffffff1673ffffffffffffffffffffffffffffffffffffffff16815260200190815260200160002060009054906101000a900460ff16151514610a55576040517f08c379a0000000000000000000000000000000000000000000000000000000008152600401610a4c9061178a565b60405180910390fd5b8160019080519060200190610a6b929190610ebd565b508060029080519060200190610a82929190610ebd565b506001600360006101000a81548160ff0219169083151502179055505050565b606060028054610ab19061170c565b80601f0160208091040260200160405190810160405280929190818152602001828054610add9061170c565b8015610b2a5780601f10610aff57610100808354040283529160200191610b2a565b820191906000526020600020905b815481529060010190602001808311610b0d57829003601f168201915b5050505050905090565b60011515600360009054906101000a900460ff16151514610b5457600080fd5b600481604051610b6491906117e6565b908152602001604051809103902060020160009054906101000a900460ff16610bc2576040517f08c379a0000000000000000000000000000000000000000000000000000000008152600401610bb990611849565b60405180910390fd5b6007600084815260200190815260200160002060009054906101000a900460ff1615610c23576040517f08c379a0000000000000000000000000000000000000000000000000000000008152600401610c1a906118b5565b60405180910390fd5b600060405180608001604052803373ffffffffffffffffffffffffffffffffffffffff168152602001858152602001848152602001838152509050600681908060018154018082558091505060019003906000526020600020906004020160009091909190915060008201518160000160006101000a81548173ffffffffffffffffffffffffffffffffffffffff021916908373ffffffffffffffffffffffffffffffffffffffff160217905550602082015181600101556040820151816002019080519060200190610cf7929190610ebd565b506060820151816003019080519060200190610d14929190610ebd565b50505060016007600086815260200190815260200160002060006101000a81548160ff02191690831515021790555050505050565b600481805160208101820180518482526020830160208501208183528095505050505050600091509050806000018054610d829061170c565b80601f0160208091040260200160405190810160405280929190818152602001828054610dae9061170c565b8015610dfb5780601f10610dd057610100808354040283529160200191610dfb565b820191906000526020600020905b815481529060010190602001808311610dde57829003601f168201915b505050505090806001018054610e109061170c565b80601f0160208091040260200160405190810160405280929190818152602001828054610e3c9061170c565b8015610e895780601f10610e5e57610100808354040283529160200191610e89565b820191906000526020600020905b815481529060010190602001808311610e6c57829003601f168201915b5050505050908060020160009054906101000a900460ff16905083565b6000600360009054906101000a900460ff16905090565b828054610ec99061170c565b90600052602060002090601f016020900481019282610eeb5760008555610f32565b82601f10610f0457805160ff1916838001178555610f32565b82800160010185558215610f32579182015b82811115610f31578251825591602001919060010190610f16565b5b509050610f3f9190610f43565b5090565b5b80821115610f5c576000816000905550600101610f44565b5090565b600081519050919050565b600082825260208201905092915050565b6000819050602082019050919050565b600081519050919050565b600082825260208201905092915050565b60005b83811015610fc6578082015181840152602081019050610fab565b83811115610fd5576000848401525b50505050565b6000601f19601f8301169050919050565b6000610ff782610f8c565b6110018185610f97565b9350611011818560208601610fa8565b61101a81610fdb565b840191505092915050565b60006110318383610fec565b905092915050565b6000602082019050919050565b600061105182610f60565b61105b8185610f6b565b93508360208202850161106d85610f7c565b8060005b858110156110a9578484038952815161108a8582611025565b945061109583611039565b925060208a01995050600181019050611071565b50829750879550505050505092915050565b600060208201905081810360008301526110d58184611046565b905092915050565b6000819050919050565b6110f0816110dd565b82525050565b600060208201905061110b60008301846110e7565b92915050565b600081519050919050565b600082825260208201905092915050565b6000819050602082019050919050565b600073ffffffffffffffffffffffffffffffffffffffff82169050919050565b60006111688261113d565b9050919050565b6111788161115d565b82525050565b611187816110dd565b82525050565b60006080830160008301516111a5600086018261116f565b5060208301516111b8602086018261117e565b50604083015184820360408601526111d08282610fec565b915050606083015184820360608601526111ea8282610fec565b9150508091505092915050565b6000611203838361118d565b905092915050565b6000602082019050919050565b600061122382611111565b61122d818561111c565b93508360208202850161123f8561112d565b8060005b8581101561127b578484038952815161125c85826111f7565b94506112678361120b565b925060208a01995050600181019050611243565b50829750879550505050505092915050565b600060208201905081810360008301526112a78184611218565b905092915050565b6000604051905090565b600080fd5b600080fd5b600080fd5b600080fd5b7f4e487b7100000000000000000000000000000000000000000000000000000000600052604160045260246000fd5b61130582610fdb565b810181811067ffffffffffffffff82111715611324576113236112cd565b5b80604052505050565b60006113376112af565b905061134382826112fc565b919050565b600067ffffffffffffffff821115611363576113626112cd565b5b61136c82610fdb565b9050602081019050919050565b82818337600083830152505050565b600061139b61139684611348565b61132d565b9050828152602081018484840111156113b7576113b66112c8565b5b6113c2848285611379565b509392505050565b600082601f8301126113df576113de6112c3565b5b81356113ef848260208601611388565b91505092915050565b6000806040838503121561140f5761140e6112b9565b5b600083013567ffffffffffffffff81111561142d5761142c6112be565b5b611439858286016113ca565b925050602083013567ffffffffffffffff81111561145a576114596112be565b5b611466858286016113ca565b9150509250929050565b600082825260208201905092915050565b600061148c82610f8c565b6114968185611470565b93506114a6818560208601610fa8565b6114af81610fdb565b840191505092915050565b600060208201905081810360008301526114d48184611481565b905092915050565b6114e58161115d565b81146114f057600080fd5b50565b600081359050611502816114dc565b92915050565b60006020828403121561151e5761151d6112b9565b5b600061152c848285016114f3565b91505092915050565b61153e816110dd565b811461154957600080fd5b50565b60008135905061155b81611535565b92915050565b600060208284031215611577576115766112b9565b5b60006115858482850161154c565b91505092915050565b60008115159050919050565b6115a38161158e565b82525050565b60006020820190506115be600083018461159a565b92915050565b6000806000606084860312156115dd576115dc6112b9565b5b60006115eb8682870161154c565b935050602084013567ffffffffffffffff81111561160c5761160b6112be565b5b611618868287016113ca565b925050604084013567ffffffffffffffff811115611639576116386112be565b5b611645868287016113ca565b9150509250925092565b600060208284031215611665576116646112b9565b5b600082013567ffffffffffffffff811115611683576116826112be565b5b61168f848285016113ca565b91505092915050565b600060608201905081810360008301526116b28186611481565b905081810360208301526116c68185611481565b90506116d5604083018461159a565b949350505050565b7f4e487b7100000000000000000000000000000000000000000000000000000000600052602260045260246000fd5b6000600282049050600182168061172457607f821691505b60208210811415611738576117376116dd565b5b50919050565b7f4f6e6c792041646d696e00000000000000000000000000000000000000000000600082015250565b6000611774600a83611470565b915061177f8261173e565b602082019050919050565b600060208201905081810360008301526117a381611767565b9050919050565b600081905092915050565b60006117c082610f8c565b6117ca81856117aa565b93506117da818560208601610fa8565b80840191505092915050565b60006117f282846117b5565b915081905092915050565b7f4e6f20737563682063616e646964617465000000000000000000000000000000600082015250565b6000611833601183611470565b915061183e826117fd565b602082019050919050565b6000602082019050818103600083015261186281611826565b9050919050565b7f416c726561647920566f74656400000000000000000000000000000000000000600082015250565b600061189f600d83611470565b91506118aa82611869565b602082019050919050565b600060208201905081810360008301526118ce81611892565b905091905056fea26469706673582212202b654c6a10f76c3caec2941d078b3185e0b7f2874264fb203f2c12d0dffab3ef64736f6c634300080b0033",
  "immutableReferences": {},
  "source": "//SPDX-License-Identifier: UNLICENSED\npragma solidity >=0.4.22 <0.9.0;\n\ncontract Election {\n    mapping(address => bool) admins;\n    string name; // name of the election. example: for president\n    string description; // description of the election\n    bool running;\n\n    constructor() {\n        admins[msg.sender] = true;\n        running = false;\n    }\n\n    modifier onlyAdmin() {\n        require(admins[msg.sender] == true, \"Only Admin\");\n        _;\n    }\n\n    function addAdmin(address _address) public onlyAdmin {\n        admins[_address] = true;\n    }\n\n    /*****************************CANDIDATES SECTION*****************************/\n\n    struct Candidate {\n        string name;\n        string info;\n        bool exists;\n    }\n    mapping(string => Candidate) public candidates;\n    string[] candidateNames;\n\n    function addCandidate(string memory _candidateName, string memory _info)\n        public\n        onlyAdmin\n    {\n        Candidate memory newCandidate = Candidate({\n            name: _candidateName,\n            info: _info,\n            exists: true\n        });\n\n        candidates[_candidateName] = newCandidate;\n        candidateNames.push(_candidateName);\n    }\n\n    function getCandidates() public view returns (string[] memory) {\n        return candidateNames;\n    }\n\n    /*****************************CANDIDATES SECTION*****************************/\n\n    /*****************************ELECTION SECTION*****************************/\n\n    function setElectionDetails(string memory _name, string memory _description)\n        public\n        onlyAdmin\n    {\n        name = _name;\n        description = _description;\n        running = true;\n    }\n\n    function getElectionName() public view returns (string memory) {\n        return name;\n    }\n\n    function getElectionDescription() public view returns (string memory) {\n        return description;\n    }\n\n    function getTotalCandidates() public view returns (uint256) {\n        return candidateNames.length;\n    }\n\n    /*****************************ELECTION SECTION*****************************/\n\n    /*****************************VOTER SECTION*****************************/\n\n    struct Vote {\n        address voterAddress;\n        uint256 voterId;\n        string voterName;\n        string candidate;\n    }\n    Vote[] votes;\n    mapping(uint256 => bool) public voterIds;\n\n    function vote(\n        uint256 _voterId,\n        string memory _voterName,\n        string memory _candidateName\n    ) public {\n        require(running == true);\n        require(candidates[_candidateName].exists, \"No such candidate\");\n        require(!voterIds[_voterId], \"Already Voted\");\n\n        Vote memory newVote = Vote({\n            voterAddress: msg.sender,\n            voterId: _voterId,\n            voterName: _voterName,\n            candidate: _candidateName\n        });\n\n        votes.push(newVote);\n        voterIds[_voterId] = true;\n    }\n\n    /*****************************VOTER SECTION*****************************/\n\n    function getVotes() public view onlyAdmin returns (Vote[] memory) {\n        return votes;\n    }\n\n    function getTotalVoter() public view returns (uint256) {\n        return votes.length;\n    }\n\n    function endElection() public onlyAdmin {\n        running = false;\n    }\n\n    function isElectionRunning() public view returns (bool) {\n        return running;\n    }\n}\n",
  "sourcePath": "/home/deathbot30/Projects/bbvs/backend/contracts/Election.sol",
  "compiler": {
    "name": "solc",
    "version": "0.8.11+commit.d7f03943.Emscripten.clang"
  },
  "schemaVersion": "3.4.5",
  "updatedAt": "2022-02-19T16:01:32.294Z",
  "networkType": "ethereum",
  "devdoc": {
    "kind": "dev",
    "methods": {},
    "version": 1
  },
  "userdoc": {
    "kind": "user",
    "methods": {},
    "version": 1
  }
}