{
  "contractName": "Election",
  "abi": [
    {
      "inputs": [],
      "stateMutability": "nonpayable",
      "type": "constructor"
    },
    {
      "inputs": [
        {
          "internalType": "string",
          "name": "",
          "type": "string"
        }
      ],
      "name": "candidates",
      "outputs": [
        {
          "internalType": "string",
          "name": "name",
          "type": "string"
        },
        {
          "internalType": "string",
          "name": "info",
          "type": "string"
        },
        {
          "internalType": "bool",
          "name": "exists",
          "type": "bool"
        }
      ],
      "stateMutability": "view",
      "type": "function",
      "constant": true
    },
    {
      "inputs": [
        {
          "internalType": "uint256",
          "name": "",
          "type": "uint256"
        }
      ],
      "name": "voterIds",
      "outputs": [
        {
          "internalType": "bool",
          "name": "",
          "type": "bool"
        }
      ],
      "stateMutability": "view",
      "type": "function",
      "constant": true
    },
    {
      "inputs": [
        {
          "internalType": "address",
          "name": "_address",
          "type": "address"
        }
      ],
      "name": "addAdmin",
      "outputs": [],
      "stateMutability": "nonpayable",
      "type": "function"
    },
    {
      "inputs": [
        {
          "internalType": "string",
          "name": "_candidateName",
          "type": "string"
        },
        {
          "internalType": "string",
          "name": "_info",
          "type": "string"
        }
      ],
      "name": "addCandidate",
      "outputs": [],
      "stateMutability": "nonpayable",
      "type": "function"
    },
    {
      "inputs": [],
      "name": "getCandidates",
      "outputs": [
        {
          "internalType": "string[]",
          "name": "",
          "type": "string[]"
        }
      ],
      "stateMutability": "view",
      "type": "function",
      "constant": true
    },
    {
      "inputs": [
        {
          "internalType": "string",
          "name": "_name",
          "type": "string"
        },
        {
          "internalType": "string",
          "name": "_description",
          "type": "string"
        }
      ],
      "name": "setElectionDetails",
      "outputs": [],
      "stateMutability": "nonpayable",
      "type": "function"
    },
    {
      "inputs": [],
      "name": "getElectionName",
      "outputs": [
        {
          "internalType": "string",
          "name": "",
          "type": "string"
        }
      ],
      "stateMutability": "view",
      "type": "function",
      "constant": true
    },
    {
      "inputs": [],
      "name": "getElectionDescription",
      "outputs": [
        {
          "internalType": "string",
          "name": "",
          "type": "string"
        }
      ],
      "stateMutability": "view",
      "type": "function",
      "constant": true
    },
    {
      "inputs": [],
      "name": "getTotalCandidates",
      "outputs": [
        {
          "internalType": "uint256",
          "name": "",
          "type": "uint256"
        }
      ],
      "stateMutability": "view",
      "type": "function",
      "constant": true
    },
    {
      "inputs": [
        {
          "internalType": "uint256",
          "name": "_voterId",
          "type": "uint256"
        },
        {
          "internalType": "string",
          "name": "_voterName",
          "type": "string"
        },
        {
          "internalType": "string",
          "name": "_candidateName",
          "type": "string"
        }
      ],
      "name": "vote",
      "outputs": [],
      "stateMutability": "nonpayable",
      "type": "function"
    },
    {
      "inputs": [],
      "name": "getVotes",
      "outputs": [
        {
          "components": [
            {
              "internalType": "address",
              "name": "voterAddress",
              "type": "address"
            },
            {
              "internalType": "uint256",
              "name": "voterId",
              "type": "uint256"
            },
            {
              "internalType": "string",
              "name": "voterName",
              "type": "string"
            },
            {
              "internalType": "string",
              "name": "candidate",
              "type": "string"
            }
          ],
          "internalType": "struct Election.Vote[]",
          "name": "",
          "type": "tuple[]"
        }
      ],
      "stateMutability": "view",
      "type": "function",
      "constant": true
    },
    {
      "inputs": [],
      "name": "getTotalVoter",
      "outputs": [
        {
          "internalType": "uint256",
          "name": "",
          "type": "uint256"
        }
      ],
      "stateMutability": "view",
      "type": "function",
      "constant": true
    },
    {
      "inputs": [],
      "name": "endElection",
      "outputs": [],
      "stateMutability": "nonpayable",
      "type": "function"
    },
    {
      "inputs": [],
      "name": "resetElection",
      "outputs": [],
      "stateMutability": "nonpayable",
      "type": "function"
    },
    {
      "inputs": [],
      "name": "getStatus",
      "outputs": [
        {
          "internalType": "string",
          "name": "",
          "type": "string"
        }
      ],
      "stateMutability": "view",
      "type": "function",
      "constant": true
    }
  ],
  "bytecode": "0x608060405234801561001057600080fd5b5060016000803373ffffffffffffffffffffffffffffffffffffffff1673ffffffffffffffffffffffffffffffffffffffff16815260200190815260200160002060006101000a81548160ff0219169083151502179055506000600360006101000a81548160ff0219169083151502179055506000600360016101000a81548160ff021916908315150217905550611fcd806100ad6000396000f3fe608060405234801561001057600080fd5b50600436106100f55760003560e01c806359f7846811610097578063af8c50b611610066578063af8c50b61461023c578063b10847591461025a578063c5539cc214610276578063e8f30523146102a8576100f5565b806359f78468146101ca57806370480275146101d4578063812bb1c3146101f057806397929c6314610220576100f5565b80630deb56ab116100d35780630deb56ab1461015457806326541b561461017257806330e7a79c1461018e5780634e69d560146101ac576100f5565b806306a49fce146100fa5780630b93400e146101185780630dc9601514610136575b600080fd5b6101026102b2565b60405161010f9190611637565b60405180910390f35b61012061038b565b60405161012d9190611672565b60405180910390f35b61013e610398565b60405161014b9190611809565b60405180910390f35b61015c61060d565b6040516101699190611672565b60405180910390f35b61018c60048036038101906101879190611974565b61061a565b005b61019661078b565b6040516101a39190611a36565b60405180910390f35b6101b461081d565b6040516101c19190611a36565b60405180910390f35b6101d261094b565b005b6101ee60048036038101906101e99190611a84565b610a54565b005b61020a60048036038101906102059190611add565b610b40565b6040516102179190611b25565b60405180910390f35b61023a60048036038101906102359190611974565b610b60565b005b610244610c5a565b6040516102519190611a36565b60405180910390f35b610274600480360381019061026f9190611b40565b610cec565b005b610290600480360381019061028b9190611bcb565b610f49565b60405161029f93929190611c14565b60405180910390f35b6102b06110a6565b005b60606005805480602002602001604051908101604052809291908181526020016000905b828210156103825783829060005260206000200180546102f590611c88565b80601f016020809104026020016040519081016040528092919081815260200182805461032190611c88565b801561036e5780601f106103435761010080835404028352916020019161036e565b820191906000526020600020905b81548152906001019060200180831161035157829003601f168201915b5050505050815260200190600101906102d6565b50505050905090565b6000600680549050905090565b6060600115156000803373ffffffffffffffffffffffffffffffffffffffff1673ffffffffffffffffffffffffffffffffffffffff16815260200190815260200160002060009054906101000a900460ff1615151461042c576040517f08c379a000000000000000000000000000000000000000000000000000000000815260040161042390611d06565b60405180910390fd5b6006805480602002602001604051908101604052809291908181526020016000905b8282101561060457838290600052602060002090600402016040518060800160405290816000820160009054906101000a900473ffffffffffffffffffffffffffffffffffffffff1673ffffffffffffffffffffffffffffffffffffffff1673ffffffffffffffffffffffffffffffffffffffff168152602001600182015481526020016002820180546104e190611c88565b80601f016020809104026020016040519081016040528092919081815260200182805461050d90611c88565b801561055a5780601f1061052f5761010080835404028352916020019161055a565b820191906000526020600020905b81548152906001019060200180831161053d57829003601f168201915b5050505050815260200160038201805461057390611c88565b80601f016020809104026020016040519081016040528092919081815260200182805461059f90611c88565b80156105ec5780601f106105c1576101008083540402835291602001916105ec565b820191906000526020600020905b8154815290600101906020018083116105cf57829003601f168201915b5050505050815250508152602001906001019061044e565b50505050905090565b6000600580549050905090565b600115156000803373ffffffffffffffffffffffffffffffffffffffff1673ffffffffffffffffffffffffffffffffffffffff16815260200190815260200160002060009054906101000a900460ff161515146106ac576040517f08c379a00000000000000000000000000000000000000000000000000000000081526004016106a390611d06565b60405180910390fd5b60006040518060600160405280848152602001838152602001600115158152509050806004846040516106df9190611d62565b9081526020016040518091039020600082015181600001908051906020019061070992919061132a565b50602082015181600101908051906020019061072692919061132a565b5060408201518160020160006101000a81548160ff02191690831515021790555090505060058390806001815401808255809150506001900390600052602060002001600090919091909150908051906020019061078592919061132a565b50505050565b60606001805461079a90611c88565b80601f01602080910402602001604051908101604052809291908181526020018280546107c690611c88565b80156108135780601f106107e857610100808354040283529160200191610813565b820191906000526020600020905b8154815290600101906020018083116107f657829003601f168201915b5050505050905090565b606060011515600360009054906101000a900460ff161515148015610855575060011515600360019054906101000a900460ff161515145b15610897576040518060400160405280600881526020017f66696e69736865640000000000000000000000000000000000000000000000008152509050610948565b60011515600360009054906101000a900460ff1615151480156108cd575060001515600360019054906101000a900460ff161515145b1561090f576040518060400160405280600781526020017f72756e6e696e67000000000000000000000000000000000000000000000000008152509050610948565b6040518060400160405280600b81526020017f6e6f742d7374617274656400000000000000000000000000000000000000000081525090505b90565b600115156000803373ffffffffffffffffffffffffffffffffffffffff1673ffffffffffffffffffffffffffffffffffffffff16815260200190815260200160002060009054906101000a900460ff161515146109dd576040517f08c379a00000000000000000000000000000000000000000000000000000000081526004016109d490611d06565b60405180910390fd5b60011515600360009054906101000a900460ff161515148015610a13575060001515600360019054906101000a900460ff161515145b610a1c57600080fd5b6001600360006101000a81548160ff0219169083151502179055506001600360016101000a81548160ff021916908315150217905550565b600115156000803373ffffffffffffffffffffffffffffffffffffffff1673ffffffffffffffffffffffffffffffffffffffff16815260200190815260200160002060009054906101000a900460ff16151514610ae6576040517f08c379a0000000000000000000000000000000000000000000000000000000008152600401610add90611d06565b60405180910390fd5b60016000808373ffffffffffffffffffffffffffffffffffffffff1673ffffffffffffffffffffffffffffffffffffffff16815260200190815260200160002060006101000a81548160ff02191690831515021790555050565b60076020528060005260406000206000915054906101000a900460ff1681565b600115156000803373ffffffffffffffffffffffffffffffffffffffff1673ffffffffffffffffffffffffffffffffffffffff16815260200190815260200160002060009054906101000a900460ff16151514610bf2576040517f08c379a0000000000000000000000000000000000000000000000000000000008152600401610be990611d06565b60405180910390fd5b8160019080519060200190610c0892919061132a565b508060029080519060200190610c1f92919061132a565b506001600360006101000a81548160ff0219169083151502179055506000600360016101000a81548160ff0219169083151502179055505050565b606060028054610c6990611c88565b80601f0160208091040260200160405190810160405280929190818152602001828054610c9590611c88565b8015610ce25780601f10610cb757610100808354040283529160200191610ce2565b820191906000526020600020905b815481529060010190602001808311610cc557829003601f168201915b5050505050905090565b60011515600360009054906101000a900460ff161515148015610d22575060001515600360019054906101000a900460ff161515145b610d2b57600080fd5b600481604051610d3b9190611d62565b908152602001604051809103902060020160009054906101000a900460ff16610d99576040517f08c379a0000000000000000000000000000000000000000000000000000000008152600401610d9090611dc5565b60405180910390fd5b6007600084815260200190815260200160002060009054906101000a900460ff1615610dfa576040517f08c379a0000000000000000000000000000000000000000000000000000000008152600401610df190611e31565b60405180910390fd5b600060405180608001604052803373ffffffffffffffffffffffffffffffffffffffff168152602001858152602001848152602001838152509050600681908060018154018082558091505060019003906000526020600020906004020160009091909190915060008201518160000160006101000a81548173ffffffffffffffffffffffffffffffffffffffff021916908373ffffffffffffffffffffffffffffffffffffffff160217905550602082015181600101556040820151816002019080519060200190610ece92919061132a565b506060820151816003019080519060200190610eeb92919061132a565b50505060016007600086815260200190815260200160002060006101000a81548160ff021916908315150217905550600884908060018154018082558091505060019003906000526020600020016000909190919091505550505050565b600481805160208101820180518482526020830160208501208183528095505050505050600091509050806000018054610f8290611c88565b80601f0160208091040260200160405190810160405280929190818152602001828054610fae90611c88565b8015610ffb5780601f10610fd057610100808354040283529160200191610ffb565b820191906000526020600020905b815481529060010190602001808311610fde57829003601f168201915b50505050509080600101805461101090611c88565b80601f016020809104026020016040519081016040528092919081815260200182805461103c90611c88565b80156110895780601f1061105e57610100808354040283529160200191611089565b820191906000526020600020905b81548152906001019060200180831161106c57829003601f168201915b5050505050908060020160009054906101000a900460ff16905083565b600115156000803373ffffffffffffffffffffffffffffffffffffffff1673ffffffffffffffffffffffffffffffffffffffff16815260200190815260200160002060009054906101000a900460ff16151514611138576040517f08c379a000000000000000000000000000000000000000000000000000000000815260040161112f90611d06565b60405180910390fd5b60011515600360009054906101000a900460ff16151514801561116e575060011515600360019054906101000a900460ff161515145b61117757600080fd5b60005b6005805490508163ffffffff16101561121857600460058263ffffffff16815481106111a9576111a8611e51565b5b906000526020600020016040516111c09190611f14565b9081526020016040518091039020600080820160006111df91906113b0565b6001820160006111ef91906113b0565b6002820160006101000a81549060ff02191690555050808061121090611f6a565b91505061117a565b5060005b6008805490508163ffffffff161015611289576007600060088363ffffffff168154811061124d5761124c611e51565b5b9060005260206000200154815260200190815260200160002060006101000a81549060ff0219169055808061128190611f6a565b91505061121c565b5060405180602001604052806000815250600190805190602001906112af92919061132a565b5060405180602001604052806000815250600290805190602001906112d592919061132a565b50600660006112e491906113f0565b600560006112f29190611414565b6000600360006101000a81548160ff0219169083151502179055506000600360016101000a81548160ff021916908315150217905550565b82805461133690611c88565b90600052602060002090601f016020900481019282611358576000855561139f565b82601f1061137157805160ff191683800117855561139f565b8280016001018555821561139f579182015b8281111561139e578251825591602001919060010190611383565b5b5090506113ac9190611435565b5090565b5080546113bc90611c88565b6000825580601f106113ce57506113ed565b601f0160209004906000526020600020908101906113ec9190611435565b5b50565b50805460008255600402906000526020600020908101906114119190611452565b50565b508054600082559060005260206000209081019061143291906114b8565b50565b5b8082111561144e576000816000905550600101611436565b5090565b5b808211156114b457600080820160006101000a81549073ffffffffffffffffffffffffffffffffffffffff0219169055600182016000905560028201600061149b91906113b0565b6003820160006114ab91906113b0565b50600401611453565b5090565b5b808211156114d857600081816114cf91906113b0565b506001016114b9565b5090565b600081519050919050565b600082825260208201905092915050565b6000819050602082019050919050565b600081519050919050565b600082825260208201905092915050565b60005b83811015611542578082015181840152602081019050611527565b83811115611551576000848401525b50505050565b6000601f19601f8301169050919050565b600061157382611508565b61157d8185611513565b935061158d818560208601611524565b61159681611557565b840191505092915050565b60006115ad8383611568565b905092915050565b6000602082019050919050565b60006115cd826114dc565b6115d781856114e7565b9350836020820285016115e9856114f8565b8060005b85811015611625578484038952815161160685826115a1565b9450611611836115b5565b925060208a019950506001810190506115ed565b50829750879550505050505092915050565b6000602082019050818103600083015261165181846115c2565b905092915050565b6000819050919050565b61166c81611659565b82525050565b60006020820190506116876000830184611663565b92915050565b600081519050919050565b600082825260208201905092915050565b6000819050602082019050919050565b600073ffffffffffffffffffffffffffffffffffffffff82169050919050565b60006116e4826116b9565b9050919050565b6116f4816116d9565b82525050565b61170381611659565b82525050565b600060808301600083015161172160008601826116eb565b50602083015161173460208601826116fa565b506040830151848203604086015261174c8282611568565b915050606083015184820360608601526117668282611568565b9150508091505092915050565b600061177f8383611709565b905092915050565b6000602082019050919050565b600061179f8261168d565b6117a98185611698565b9350836020820285016117bb856116a9565b8060005b858110156117f757848403895281516117d88582611773565b94506117e383611787565b925060208a019950506001810190506117bf565b50829750879550505050505092915050565b600060208201905081810360008301526118238184611794565b905092915050565b6000604051905090565b600080fd5b600080fd5b600080fd5b600080fd5b7f4e487b7100000000000000000000000000000000000000000000000000000000600052604160045260246000fd5b61188182611557565b810181811067ffffffffffffffff821117156118a05761189f611849565b5b80604052505050565b60006118b361182b565b90506118bf8282611878565b919050565b600067ffffffffffffffff8211156118df576118de611849565b5b6118e882611557565b9050602081019050919050565b82818337600083830152505050565b6000611917611912846118c4565b6118a9565b90508281526020810184848401111561193357611932611844565b5b61193e8482856118f5565b509392505050565b600082601f83011261195b5761195a61183f565b5b813561196b848260208601611904565b91505092915050565b6000806040838503121561198b5761198a611835565b5b600083013567ffffffffffffffff8111156119a9576119a861183a565b5b6119b585828601611946565b925050602083013567ffffffffffffffff8111156119d6576119d561183a565b5b6119e285828601611946565b9150509250929050565b600082825260208201905092915050565b6000611a0882611508565b611a1281856119ec565b9350611a22818560208601611524565b611a2b81611557565b840191505092915050565b60006020820190508181036000830152611a5081846119fd565b905092915050565b611a61816116d9565b8114611a6c57600080fd5b50565b600081359050611a7e81611a58565b92915050565b600060208284031215611a9a57611a99611835565b5b6000611aa884828501611a6f565b91505092915050565b611aba81611659565b8114611ac557600080fd5b50565b600081359050611ad781611ab1565b92915050565b600060208284031215611af357611af2611835565b5b6000611b0184828501611ac8565b91505092915050565b60008115159050919050565b611b1f81611b0a565b82525050565b6000602082019050611b3a6000830184611b16565b92915050565b600080600060608486031215611b5957611b58611835565b5b6000611b6786828701611ac8565b935050602084013567ffffffffffffffff811115611b8857611b8761183a565b5b611b9486828701611946565b925050604084013567ffffffffffffffff811115611bb557611bb461183a565b5b611bc186828701611946565b9150509250925092565b600060208284031215611be157611be0611835565b5b600082013567ffffffffffffffff811115611bff57611bfe61183a565b5b611c0b84828501611946565b91505092915050565b60006060820190508181036000830152611c2e81866119fd565b90508181036020830152611c4281856119fd565b9050611c516040830184611b16565b949350505050565b7f4e487b7100000000000000000000000000000000000000000000000000000000600052602260045260246000fd5b60006002820490506001821680611ca057607f821691505b60208210811415611cb457611cb3611c59565b5b50919050565b7f4f6e6c792041646d696e00000000000000000000000000000000000000000000600082015250565b6000611cf0600a836119ec565b9150611cfb82611cba565b602082019050919050565b60006020820190508181036000830152611d1f81611ce3565b9050919050565b600081905092915050565b6000611d3c82611508565b611d468185611d26565b9350611d56818560208601611524565b80840191505092915050565b6000611d6e8284611d31565b915081905092915050565b7f4e6f20737563682063616e646964617465000000000000000000000000000000600082015250565b6000611daf6011836119ec565b9150611dba82611d79565b602082019050919050565b60006020820190508181036000830152611dde81611da2565b9050919050565b7f416c726561647920566f74656400000000000000000000000000000000000000600082015250565b6000611e1b600d836119ec565b9150611e2682611de5565b602082019050919050565b60006020820190508181036000830152611e4a81611e0e565b9050919050565b7f4e487b7100000000000000000000000000000000000000000000000000000000600052603260045260246000fd5b60008190508160005260206000209050919050565b60008154611ea281611c88565b611eac8186611d26565b94506001821660008114611ec75760018114611ed857611f0b565b60ff19831686528186019350611f0b565b611ee185611e80565b60005b83811015611f0357815481890152600182019150602081019050611ee4565b838801955050505b50505092915050565b6000611f208284611e95565b915081905092915050565b7f4e487b7100000000000000000000000000000000000000000000000000000000600052601160045260246000fd5b600063ffffffff82169050919050565b6000611f7582611f5a565b915063ffffffff821415611f8c57611f8b611f2b565b5b60018201905091905056fea2646970667358221220e2e704624c1c859c7f9e998775e06ae01651718e9486fbd23c9d6d12dc6708b764736f6c634300080b0033",
  "immutableReferences": {},
  "source": "//SPDX-License-Identifier: UNLICENSED\npragma solidity >=0.4.22 <0.9.0;\n\ncontract Election {\n    mapping(address => bool) admins;\n    string name; // name of the election. example: for president\n    string description; // description of the election\n    bool started;\n    bool ended;\n\n    constructor() {\n        admins[msg.sender] = true;\n        started = false;\n        ended = false;\n    }\n\n    modifier onlyAdmin() {\n        require(admins[msg.sender] == true, \"Only Admin\");\n        _;\n    }\n\n    function addAdmin(address _address) public onlyAdmin {\n        admins[_address] = true;\n    }\n\n    /*****************************CANDIDATES SECTION*****************************/\n\n    struct Candidate {\n        string name;\n        string info;\n        bool exists;\n    }\n    mapping(string => Candidate) public candidates;\n    string[] candidateNames;\n\n    function addCandidate(string memory _candidateName, string memory _info)\n        public\n        onlyAdmin\n    {\n        Candidate memory newCandidate = Candidate({\n            name: _candidateName,\n            info: _info,\n            exists: true\n        });\n\n        candidates[_candidateName] = newCandidate;\n        candidateNames.push(_candidateName);\n    }\n\n    function getCandidates() public view returns (string[] memory) {\n        return candidateNames;\n    }\n\n    /*****************************CANDIDATES SECTION*****************************/\n\n    /*****************************ELECTION SECTION*****************************/\n\n    function setElectionDetails(string memory _name, string memory _description)\n        public\n        onlyAdmin\n    {\n        name = _name;\n        description = _description;\n        started = true;\n        ended = false;\n    }\n\n    function getElectionName() public view returns (string memory) {\n        return name;\n    }\n\n    function getElectionDescription() public view returns (string memory) {\n        return description;\n    }\n\n    function getTotalCandidates() public view returns (uint256) {\n        return candidateNames.length;\n    }\n\n    /*****************************ELECTION SECTION*****************************/\n\n    /*****************************VOTER SECTION*****************************/\n\n    struct Vote {\n        address voterAddress;\n        uint256 voterId;\n        string voterName;\n        string candidate;\n    }\n    Vote[] votes;\n    mapping(uint256 => bool) public voterIds;\n    uint256[] votersArray;\n\n    function vote(\n        uint256 _voterId,\n        string memory _voterName,\n        string memory _candidateName\n    ) public {\n        require(started == true && ended == false);\n        require(candidates[_candidateName].exists, \"No such candidate\");\n        require(!voterIds[_voterId], \"Already Voted\");\n\n        Vote memory newVote = Vote({\n            voterAddress: msg.sender,\n            voterId: _voterId,\n            voterName: _voterName,\n            candidate: _candidateName\n        });\n\n        votes.push(newVote);\n        voterIds[_voterId] = true;\n        votersArray.push(_voterId);\n    }\n\n    /*****************************VOTER SECTION*****************************/\n\n    function getVotes() public view onlyAdmin returns (Vote[] memory) {\n        return votes;\n    }\n\n    function getTotalVoter() public view returns (uint256) {\n        return votes.length;\n    }\n\n    function endElection() public onlyAdmin {\n        require(started == true && ended == false);\n\n        started = true;\n        ended = true;\n    }\n\n    function resetElection() public onlyAdmin {\n        require(started == true && ended == true);\n\n        for (uint32 i = 0; i < candidateNames.length; i++) {\n            delete candidates[candidateNames[i]];\n        }\n\n        for (uint32 i = 0; i < votersArray.length; i++) {\n            delete voterIds[votersArray[i]];\n        }\n\n        name = \"\";\n        description = \"\";\n\n        delete votes;\n        delete candidateNames;\n\n        started = false;\n        ended = false;\n    }\n\n    function getStatus() public view returns (string memory) {\n        if (started == true && ended == true) {\n            return \"finished\";\n        }\n\n        if (started == true && ended == false) {\n            return \"running\";\n        }\n\n        return \"not-started\";\n    }\n}\n",
  "sourcePath": "/home/deathbot30/Projects/bbvs/backend/contracts/Election.sol",
  "compiler": {
    "name": "solc",
    "version": "0.8.11+commit.d7f03943.Emscripten.clang"
  },
  "schemaVersion": "3.4.5",
  "updatedAt": "2022-02-20T06:26:52.299Z",
  "networkType": "ethereum",
  "devdoc": {
    "kind": "dev",
    "methods": {},
    "version": 1
  },
  "userdoc": {
    "kind": "user",
    "methods": {},
    "version": 1
  }
}